:100000000C9434000C9449000C9449000C94490061
:100010000C9449000C9449000C9449000C9449003C
:100020000C9449000C9449000C9449000C9449002C
:100030000C9449000C9449000C9449000C9449001C
:100040000C9449000C9449000C9449000C9449000C
:100050000C9449000C9449000C9449000C944900FC
:100060000C9449000C94490011241FBECFEFD8E036
:10007000DEBFCDBF11E0A0E0B1E0E2E9F5E002C0F3
:1000800005900D92A433B107D9F70E94D4010C94C6
:10009000C7020C940000209A219A80EF8AB987EC5D
:1000A0009FEA0197F1F700C0000080E28BB9299820
:1000B00098E29A95F1F7299AE8E2EA95F1F72998FA
:1000C000F8E2FA95F1F7EFEDFEE23197F1F700C0B3
:1000D0000000EFECF2E03197F1F700C00000EFEC28
:1000E000F2E03197F1F700C000008BB92998F8E2EF
:1000F000FA95F1F7299A88E28A95F1F7299898E21A
:100100009A95F1F7EFEDFEE23197F1F700C00000AC
:100110008FEC92E00197F1F700C00000EFECF2E005
:100120003197F1F700C000001BB82998F8E2FA9562
:10013000F1F7299A88E28A95F1F7299898E29A9539
:10014000F1F7EDEEF2E03197F1F700C000001BB8D7
:100150002998F8E2FA95F1F7299A88E28A95F1F759
:10016000299898E29A95F1F7EDEEF2E03197F1F7E0
:1001700000C0000080EE8BB92998F8E2FA95F1F7FB
:10018000299A88E28A95F1F7299898E29A95F1F7E9
:10019000E1ECF1E03197F1F700C000001BB82998BD
:1001A000F8E2FA95F1F7299A88E28A95F1F7299809
:1001B00098E29A95F1F7E1ECF1E03197F1F700C0A0
:1001C000000080E68BB92998F8E2FA95F1F7299AB0
:1001D00088E28A95F1F7299898E29A95F1F7E1EC8F
:1001E000F1E03197F1F700C000000895289A8BB92B
:1001F000299898E29A95F1F7299A98E29A95F1F759
:10020000299898E29A95F1F790EA9A95F1F78295F4
:10021000807F8BB9299888E28A95F1F7299A98E22C
:100220009A95F1F7299888E28A95F1F790EA9A95DC
:10023000F1F728988FED9EE20197F1F700C00000DA
:100240008FEC92E00197F1F700C000008FEC92E094
:100250000197F1F700C00000089528981BB829986D
:1002600088E28A95F1F7299A88E28A95F1F7299828
:1002700088E28A95F1F780EA8A95F1F780E18BB9F7
:10028000299888E28A95F1F7299A88E28A95F1F708
:10029000299888E28A95F1F780EA8A95F1F708951E
:1002A0006111885D80688BB9299898E29A95F1F779
:1002B000299A98E29A95F1F7299898E29A95F1F798
:1002C00090EA9A95F1F78295807F8BB9299888E218
:1002D0008A95F1F7299A98E29A95F1F7299888E298
:1002E0008A95F1F78FED9EE20197F1F700C00000CB
:1002F0008FEC92E00197F1F700C000008FEC92E0E4
:100300000197F1F700C000000895882341F190E0C3
:100310002FEB37E249E0215030404040E1F700C088
:1003200000002FEB37E249E0215030404040E1F738
:1003300000C000002FEB37E249E021503040404040
:10034000E1F700C000002FEB37E249E021503040D8
:100350004040E1F700C000009F5F8913D9CF0895A6
:10036000882351F090E0EFE2F5E73197F1F700C014
:1003700000009F5F8913F7CF08950F931F93CF93CA
:10038000082F192FF80180818A3051F0C0E00E94B7
:10039000F600CF5FF801EC0FF11D80818A30B9F7CC
:1003A000CF911F910F910895CDB7DEB7E4970FB6A7
:1003B000F894DEBF0FBECDBF0E944B006894992415
:1003C00095F80F2EFFE0FF2EF02DCE0143965C0135
:1003D00041966C016894EE24E4F83A2C4B2C582E8C
:1003E0006D2C0E942D0188E60E94F60085E60E9491
:1003F000F6008CE60E94F6008CE60E94F6008FE67E
:100400000E94F600892D0E94F6008BE60E94F600FD
:1004100089E60E94F60084E70E94F60084E70E94C5
:10042000F60089E70E94F60081E00E9485010E94A3
:100430002D0181E00E94850181E00E94850182E119
:10044000E0E0F1E0DE01119601900D928A95E1F76E
:10045000CE0101960E94BD0182E00E9485010E94AA
:100460002D0160E084E00E94500184E70E94F600C4
:1004700081E00E94850161E082E00E94500187E7EF
:100480000E94F60081E00E9485010E942D0161E03A
:1004900080E00E9450018AE20E94F60060E08F2D09
:1004A0000E9450018BE20E94F6000F2EFFE18F2E7A
:1004B000F02D11E001E089E10E94B0018A948820CA
:1004C000C1F00E942D0161E0812F0E9450018AE25B
:1004D0000E94F60060E08F2D811B0E9450018BE28C
:1004E0000E94F600100F8FEF810F8E3020F30195E0
:1004F000E2CF81E1E2E1F1E0D50101900D928A9530
:10050000E1F781E1E3E2F1E0D60101900D928A95F5
:10051000E1F70F2EFAE07F2EF02D36C060E0892D36
:10052000811B0E945001832D942D0E94BD0161E02A
:1005300080EF810F0E945001852D962D0E94BD01F4
:100540008F2D0E94B0011F31D8F40F5F1F5F0E94F2
:100550002D01003118F760E0802F0E945001832D9B
:10056000942D0E94BD0161E08E2D811B0E945001DF
:10057000852D962D0E94BD018F2D0E94B001E5CFE3
:100580007A94772009F42DCF082D11E0E0CFF8946C
:02059000FFCF9B
:1005920041532644442074686520626573742121A6
:1005A2000A003C3C53414945502052554C45533E6C
:1005B2003E0A00676C6F727920746F20726F626FEF
:0405C20074730A0044
:00000001FF
