:100000000C9434000C943E000C943E000C943E0082
:100010000C943E000C943E000C943E000C943E0068
:100020000C943E000C943E000C943E000C943E0058
:100030000C943E000C943E000C943E000C943E0048
:100040000C943E000C943E000C943E000C943E0038
:100050000C943E000C943E000C943E000C943E0028
:100060000C943E000C943E0011241FBECFEFD8E04C
:10007000DEBFCDBF0E9494020C94A0020C9400003D
:10008000209A219A8FEF8AB987EC9FEA0197F1F7BE
:1000900000C0000080E38BB9299898E29A95F1F7A7
:1000A000299AE8E2EA95F1F72998F8E2FA95F1F74A
:1000B000EFEDFEE23197F1F700C00000EFECF2E067
:1000C0003197F1F700C00000EFECF2E03197F1F763
:1000D00000C000008BB92998F8E2FA95F1F7299A47
:1000E00038E23A95F1F7299858E25A95F1F7EFED91
:1000F000FEE23197F1F700C00000EFECF2E031973B
:10010000F1F700C00000EFECF2E03197F1F700C02A
:1001100000008BB92998F8E2FA95F1F7299A38E2AC
:100120003A95F1F7299858E25A95F1F7EFE6F7E199
:100130003197F1F700C00000EFECF2E03197F1F7F2
:1001400000C00000EFECF2E03197F1F700C00000D2
:1001500020E22BB92998F8E2FA95F1F7299A38E2CA
:100160003A95F1F7299858E25A95F1F7E1ECF1E068
:100170003197F1F700C000002BB92998F8E2FA9501
:10018000F1F7299A38E23A95F1F7299858E25A9509
:10019000F1F7E1ECF1E03197F1F700C000001BB896
:1001A0002998F8E2FA95F1F7299A38E23A95F1F7A9
:1001B000299858E25A95F1F7E1ECF1E03197F1F71F
:1001C00000C0000090EC9BB92998F8E2FA95F1F78D
:1001D000299A38E23A95F1F7299858E25A95F1F7B9
:1001E000E1ECF1E03197F1F700C000009BB92998EC
:1001F000F8E2FA95F1F7299A38E23A95F1F7299859
:1002000058E25A95F1F7E1ECF1E03197F1F700C0CF
:1002100000001BB82998F8E2FA95F1F7299A38E21C
:100220003A95F1F7299858E25A95F1F7E1ECF1E0A7
:100230003197F1F700C0000040E14BB92998F8E28E
:10024000FA95F1F7299A38E23A95F1F7299858E2A8
:100250005A95F1F7EFE6F7E13197F1F700C00000AA
:10026000EFECF2E03197F1F700C00000EFECF2E0C4
:100270003197F1F700C000001BB82998F8E2FA9511
:10028000F1F7299A38E23A95F1F7299858E25A9508
:10029000F1F7E1ECF1E03197F1F700C0000030E652
:1002A0003BB92998F8E2FA95F1F7299A58E25A955C
:1002B000F1F72998E8E2EA95F1F7E7EBFBE03197EF
:1002C000F1F700C000009BB92998F8E2FA95F1F720
:1002D000299A58E25A95F1F72998E8E2EA95F1F758
:1002E000EFEDFEE23197F1F700C00000EFECF2E035
:1002F0003197F1F700C00000EFECF2E03197F1F731
:1003000000C000008BB92998F8E2FA95F1F7299A14
:1003100058E25A95F1F72998E8E2EA95F1F7EFEDFE
:10032000FEE23197F1F700C00000EFECF2E0319708
:10033000F1F700C00000EFECF2E03197F1F700C0F8
:1003400000008BB92998F8E2FA95F1F7299A58E25A
:100350005A95F1F7299888E28A95F1F7EDEEF2E0E7
:100360003197F1F700C000002BB92998F8E2FA950F
:10037000F1F7299A58E25A95F1F7299888E28A9577
:10038000F1F7E1ECF1E03197F1F700C000002BB993
:100390002998F8E2FA95F1F7299A58E25A95F1F777
:1003A000299888E28A95F1F7E1ECF1E03197F1F7CD
:1003B00000C0000080E88BB92998F8E2FA95F1F7BF
:1003C000299A58E25A95F1F7299888E28A95F1F727
:1003D000E1ECF1E03197F1F700C000001BB829987B
:1003E000F8E2FA95F1F7299A58E25A95F1F7299827
:1003F00088E28A95F1F7E1ECF1E03197F1F700C07E
:1004000000009BB92998F8E2FA95F1F7299A58E289
:100410005A95F1F7299888E28A95F1F7E1ECF1E035
:100420003197F1F700C000001BB82998F8E2FA955F
:10043000F1F7299A58E25A95F1F7299888E28A95B6
:10044000F1F7E1ECF1E03197F1F700C000004BB9B2
:100450002998F8E2FA95F1F7299A58E25A95F1F7B6
:10046000299888E28A95F1F7EFE6F7E13197F1F7FD
:1004700000C000008FEC92E00197F1F700C000008F
:10048000EFECF2E03197F1F700C000001BB82998BB
:10049000F8E2FA95F1F7299A58E25A95F1F7299876
:1004A00088E28A95F1F7E1ECF1E03197F1F700C0CD
:1004B00000003BB92998F8E2FA95F1F7299A38E259
:1004C0003A95F1F7299858E25A95F1F781EC91E0C5
:1004D0000197F1F700C000000895289A8BB9299878
:1004E00098E29A95F1F7299A98E29A95F1F7299866
:1004F00098E29A95F1F790EA9A95F1F79FE0899F33
:10050000802D11248BB9299888E28A95F1F7299AD0
:1005100098E29A95F1F7299888E28A95F1F790EA9E
:100520009A95F1F7289808950E944000C0E08C2F1A
:100530000E946D02CF5FCF3FD1F790E080E0089539
:04054000F894FFCF5D
:00000001FF
